:100000000C9434000C9446000C9446000C9446006A
:100010000C9446000C9446000C9446000C94460048
:100020000C9446000C9446000C9446000C94460038
:100030000C9446000C9446000C9446000C94460028
:100040000C9446000C9446000C9446000C94460018
:100050000C9446000C9446000C9446000C94460008
:100060000C9446000C94460011241FBECFEFD8E03C
:10007000DEBFCDBF21E0A0E0B1E001C01D92A03005
:10008000B207E1F70E947F000C949B000C940000E3
:10009000CF92DF92EF92FF9220E0C12CD12C76011B
:1000A0001AC0EAE7F0E090819064908390917A0022
:1000B00096FDFCCF809178004091790050E0542F5C
:1000C0004427482B052E000C660B770BC40ED51E5B
:1000D000E61EF71E2F5F203120F3D701C6010896D8
:1000E000A11DB11D689413F8B695A79597958795AE
:1000F0001694D1F7FF90EF90DF90CF90089580E4B1
:1001000080937C0087E880937A0084B1826084B910
:1001100082E88093800089E1809381008FEF93E0F3
:1001200090938700809386000E94480090938900F6
:0A01300080938800F9CFF894FFCF08
:00000001FF
